:100000000C94E1010C9412020C9412020C94120252
:100010000C9412020C9412020C9412020C94120210
:100020000C9412020C9412020C9412020C94120200
:100030000C9412020C9412020C9412020C941202F0
:100040000C9412020C9412020C9412020C941202E0
:100050000C9412020C9412020C9412020C946B1960
:100060000C9412020C943F1A0C94151A0C94120260
:100070000C9412020C9412020C9412020C941202B0
:100080000C9412020C9412020C9412020C941202A0
:100090000C9412020C9412020C9412020C94120290
:1000A0000C9412020C9412020C9412020C94120280
:1000B0000C9412020C9412020C9412020C94120270
:1000C0000C9412020C9412020C9412020C94DF197C
:1000D0000C94B5190C9412020C9412020C94120296
:1000E0000C9412020C942C110C94DF100C94F1025D
:1000F0000C94FF020C9409030C94DA020C94E302B2
:100100000C9475100C94F5020C9461120C94D6109A
:100110000C942F050C946F0E0C94F3040C940F1197
:100120000C94CE020C94E7020C94E4040C940D039E
:100130000C94E0050C947D1A0C94D2020C94DD0210
:100140000C9451050C9493050C94FB020C94D6026C
:100150000C9420050C94ED020C9408030C94C80236
:100160000C94751A0C946B120C9403030C94FF10EE
:100170000C94430500407A10F35A00A0724E1809FF
:100180000010A5D4E80000E87648170000E40B54FE
:10019000020000CA9A3B000000E1F50500008096CD
:1001A0009800000040420F000000A08601000000FF
:1001B000102700000000E8030000000064000000B9
:1001C00000000A00000000000100000000002C7682
:1001D000D888DC674F0823DFC1DFAE59E1B1B7969D
:1001E000E5E3E453C63AE651997696E8E6C28426FA
:1001F000EB898C9B62ED407C6FFCEFBC9C9F40F2D6
:10020000BAA56FA5F490055A2AF75C936B6CF96751
:100210006DC11BFCE0E40D47FEF520E6B500D0ED16
:10022000902E0300943577050080841E080000207E
:100230004E0A000000C80C333333330F986E12831C
:100240001141EF8D2114893BE65516CFFEE6DB18F0
:10025000D1844B381BF77C1D901DA4BBE4242032B5
:1002600084725E228100C9F124ECA1E53D277C3C2B
:100270003E5E2B3D3F2F5B5D3B2C2A225C00000045
:100280002100240027002A002D0030003300010146
:100290000000040107010A010000220025002800D7
:1002A0002B002E003100340002010000050108017E
:1002B0000B0100000A0B02090C0D0E0807030401D4
:1002C000000000000000000000000000000000002E
:1002D00000000000000000000000000000001211FB
:1002E00010000000000000000000000000000000FE
:1002F0000000000000000000005EBCE2613FDD8302
:10030000C29C7E20A3FD1F41009D23BE46DB65F8F5
:100310008C11AF32CA57E974000020002300260078
:1003200029002C002F00320000010000030106010B
:10033000090105050505070508080808020202026B
:100340000A0A080804040404010101010101010171
:100350000303030303030303040707070C0C0C0C3C
:100360000C0C0C0C02020202060606060606060625
:100370000B0B0B0B0B0B0B0B0102102020080810B2
:100380002040102040800201020108040201010205
:1003900004081020408080402010080402018004DE
:1003A0000201804020100804020108040201010239
:1003B00004081020408001020408102040807D1AAB
:1003C000751A11241FBECFEFD1E2DEBFCDBF00E012
:1003D0000CBF28E0ACE6B3E001C01D92A339B20720
:1003E000E1F713E0A0E0B2E0ECEAF1E500E00BBFDA
:1003F00002C007900D92AC36B107D9F711E0C0EEFC
:10040000D1E000E006C021970109802FFE010E9483
:100410000426CF3DD10780E00807A9F70E94AC1B56
:100420000C94C4280C940000CF93DF93FC018281CC
:10043000938190932F0880932E0884819581A681C3
:10044000B7818093300890933108A0933208B0931D
:10045000330880859185A285B38580933408909375
:100460003508A0933608B0933708DF011C96CF01FA
:100470004996C8E3D8E02D912993A817B907D9F771
:10048000818D928D90934608809345088CE298E088
:10049000DF91CF910895FC01A089B18982E08C930E
:1004A000A485B5851C92A685B7858FEC8C93108E9C
:1004B000A489B58986E08C93A289B3898C918061E7
:1004C0008C93A289B3898C9188608C93A289B3891B
:1004D0008C9180688C930288F389E02D80818F7DD8
:1004E00080830895CF92DF92EF92FF92CF93DF93B4
:1004F000B0910508A0E08111AB2F8091060890E033
:10050000880F991FAC01485E5C4FC0900B08D090DB
:100510000C08E0900D08F0900E0830E020E0FA01A1
:10052000C591D491E881B90190E080E0EB23EA1312
:100530000AC02F5F3F4F6C157D058E059F0578F330
:100540006FEF7FEFCB01DF91CF91FF90EF90DF90C6
:10055000CF9008958150823108F05AC0E82FF0E022
:100560008827EA54FD4F8F4F0C940426D602DA02F6
:10057000C802CE02D2020803DD02E302E702ED0266
:10058000F102F502FB02FF020803030309030D0356
:10059000809180008F778093800008958091800003
:1005A0008F7DF9CF80918000877FF5CF84B58F77DD
:1005B00084BD089584B58F7DFBCF8091B0008F7787
:1005C0008093B00008958091B0008F7DF9CF809125
:1005D00090008F77809390000895809190008F7D98
:1005E000F9CF80919000877FF5CF8091A0008F7721
:1005F0008093A00008958091A0008F7DF9CF809115
:10060000A000877FF5CF809120018F778093200114
:100610000895809120018F7DF9CF80912001877FFF
:10062000F5CF1F93CF93DF93282F30E0F901EE54DD
:10063000FD4F8491F901E858FC4FD491F901EE5C2B
:10064000FC4FC491CC23A9F0162F81110E94AA025D
:10065000EC2FF0E0EE0FFF1FE856FD4FA591B4918F
:100660008FB7F894EC91111108C0D095DE23DC937C
:100670008FBFDF91CF911F910895DE2BF8CFCF93DD
:10068000DF9390E0FC01E858FC4F24918E5C9C4F76
:10069000FC0184918823C9F090E0880F991FFC0128
:1006A000E258FD4FA591B491FC01E856FD4FC5916C
:1006B000D49161110DC09FB7F8948C91209582233D
:1006C0008C938881282328839FBFDF91CF91089541
:1006D000623051F49FB7F8943C91822F8095832328
:1006E0008C93E8812E2BEFCF8FB7F894EC912E2BC3
:1006F0002C938FBFEACF3FB7F89480917304909109
:100700007404A0917504B091760426B5A89B05C029
:100710002F3F19F00196A11DB11D3FBFBA2FA92F80
:10072000982F8827BC01CD01620F711D811D911D7D
:1007300042E0660F771F881F991F4A95D1F70895E9
:100740008F929F92AF92BF92CF92DF92EF92FF92E1
:100750004B015C010E947B036B017C010E947B03C7
:100760006C197D098E099F09683E734081059105CA
:10077000A8F321E0821A9108A108B10888EEC80EFA
:1007800083E0D81EE11CF11C81149104A104B10482
:1007900029F7FF90EF90DF90CF90BF90AF909F90A0
:1007A0008F9008952FB7F89460916F047091700442
:1007B00080917104909172042FBF0895CF92DF92BF
:1007C000EF92FF920F931F93CF93DF93CDB7DEB7D6
:1007D000C054D1400FB6F894DEBF0FBECDBF0E940B
:1007E000D203009107081091080820910908309160
:1007F0000A086B017C01C01AD10AE20AF30A9701C8
:100800008601003D17402105310590F480910F08C5
:10081000C05CDE4F0FB6F894DEBF0FBECDBFDF91D8
:10082000CF911F910F91FF90EF90DF90CF9008959F
:1008300060930708709308088093090890930A084A
:100840001092020810920108109200081092FF07FF
:100850001092FE0762E0809103080E943F0361E06E
:1008600070E080E090E00E94A00361E080910308C6
:100870000E943F0360E0809103080E941103809171
:1008800004088551823020F58BE291E10197F1F760
:1008900062E0809103080E943F038091100890E07D
:1008A0008230910538F0880F991F880F991F05979E
:1008B0000197F1F7F89480E00E9472026F3F7F4F3A
:1008C0008F4F9F4F61F410920F08789480E0A0CF73
:1008D00064E170E080E090E00E94A003D9CF81E065
:1008E0000E9472026F3F7F4F8F4F9F4F61F38E01C7
:1008F0000F5F1F4F6E012FEBC21A2EEFD20A780145
:1009000080E00E947202F701608371838283938387
:1009100081E00E947202F701648375838683978366
:10092000F8E0EF0EF11CEC14FD0451F7789430E080
:1009300020E0F801C080D180E280F38044815581BD
:1009400066817781FFEFCF16DF06EF06FF0631F0F5
:100950004F3F8FEF58076807780719F410920F0878
:10096000B5CFF90183E0F595E7958A95E1F7E25077
:10097000F84F8081880FC416D506E606F70610F1F9
:1009800080832F5F3F4F085F1F4F2832310589F664
:10099000409102082091FE078091FF07280F33271E
:1009A000331F80910008280F311D80910108820FAC
:1009B000932F911D99274817190681F681E080939E
:1009C0000F0826CF8160DCCF0895DB0114964D918E
:1009D0005C9115976D917C91DC01ED91FC91028009
:1009E000F381E02D1994AF92BF92CF92DF92EF92F4
:1009F000FF920F931F93CF93DF936C017B018B01C9
:100A0000040F151FEB015E01AE18BF08C017D10718
:100A100059F06991D601ED91FC910190F081E02DA2
:100A2000C6011995892B79F7C501DF91CF911F91E7
:100A30000F91FF90EF90DF90CF90BF90AF9008950F
:100A4000FC01538D448D252F30E0842F90E0821BD4
:100A5000930B541710F0CF96089501970895FC0159
:100A6000918D828D981761F0A28DAE0FBF2FB11DB1
:100A70005D968C91928D9F5F9F73928F90E0089509
:100A80008FEF9FEF0895FC01918D828D981731F0C3
:100A9000828DE80FF11D858D90E008958FEF9FEF17
:100AA0000895FC01918D228D892F90E0805C9F4FED
:100AB000821B91098F739927089589E796E00E9418
:100AC000510521E0892B09F420E0822F089586E169
:100AD00097E00E94510521E0892B09F420E0822F44
:100AE0000895FC01A48DA80FB92FB11DA35ABF4FC3
:100AF0002C91848D90E001968F739927848FA6891D
:100B0000B7892C93A089B1898C91837080648C9370
:100B1000938D848D981306C00288F389E02D80811F
:100B20008F7D80830895EF92FF920F931F93CF9351
:100B3000DF93EC0181E0888F9B8D8C8D98131AC018
:100B4000E889F989808185FF15C09FB7F894EE89FF
:100B5000FF896083E889F98980818370806480835C
:100B60009FBF81E090E0DF91CF911F910F91FF90A7
:100B7000EF900895F62E0B8D10E00F5F1F4F0F734F
:100B80001127E02E8C8D8E110CC00FB607FCFACF0A
:100B9000E889F989808185FFF5CFCE010E94710532
:100BA000F1CFEB8DEC0FFD2FF11DE35AFF4FF082DB
:100BB0009FB7F8940B8FEA89FB8980818062CFCF41
:100BC000CF93DF93EC01888D8823B9F0AA89BB8984
:100BD000E889F9898C9185FD03C0808186FD0DC06F
:100BE0000FB607FCF7CF8C9185FFF2CF808185FF90
:100BF000EDCFCE010E947105E9CFDF91CF9108952D
:100C000080E090E0892B29F00E94670581110E9405
:100C1000000080E090E0892B49F080E090E0892B93
:100C200029F00E94000081110E94000080E090E005
:100C3000892B29F00E945D0581110E94000080E04F
:100C400090E0892B49F080E090E0892B29F00E9408
:100C5000000081110C9400000895DC012C91119684
:100C6000ED91FC91F8948181822B81839281322FC6
:100C700030959323928387E090E00197F1F781818B
:100C80008323818383E290E00197F1F79081789448
:100C9000EFECF0E03197F1F7922381E009F480E086
:100CA0000895FC0190810180F281E02D292F20958B
:100CB00060FF14C0F8948281822382838181892B12
:100CC0008183A3E2B0E01197F1F78281982B9283A0
:100CD000789487ED90E00197F1F70895F894828178
:100CE000822382838181892B8183AFEFB0E01197CA
:100CF000F1F78281982B928378948FE090E0EBCF8C
:100D0000EF92FF920F931F93CF93DF93EC01E62EA8
:100D100008E010E0FF24F39461E08E2D8F2109F4A8
:100D200060E0CE010E945106FF0C01501109A1F7AD
:100D3000F894E981FA819181888180958923818362
:100D4000E981FA81928188818095892382837894D0
:100D5000DF91CF911F910F91FF90EF900895FC01CB
:100D600090810180F281E02DF8948181292F2095D6
:100D70008223818378943DE743E050E0315029F1AC
:100D8000DA011197F1F780818923C1F3F894828108
:100D9000822382838181892B81837894ABE7B7E0BA
:100DA0001197F1F7F894818182238183A3E1B1E067
:100DB0001197F1F78081982381E009F080E0789421
:100DC000E3E6F6E03197F1F7089580E00895EF92B9
:100DD000FF921F93CF93DF93E0911C08EA501FE12D
:100DE000E33020F4F0E0E85EFD4F108180911908B7
:100DF00090911A080E94AF06E0901908F0901A0826
:100E000065E5C7010E948006C1E1D8E06991C7018C
:100E10000E94800688E0C931D807C1F76EE480914E
:100E2000190890911A080E94800660E080911908C4
:100E300090911A080E94800664E6809119089091AA
:100E40001A080E948006612F8091190890911A0853
:100E50000E9480068091190890911A08DF91CF9125
:100E60001F91FF90EF900C94AF068FB7F89480918C
:100E70006D038FBF089561E0FC0184810E9411031E
:100E800080916C03811110926C0308958EBD000057
:100E90000DB407FEFDCF8EB508958FEF0C94460775
:100EA0000F931F93CF93DF93EC010E94D2038B012A
:100EB0000E944D078F3F69F00E94D203601B710BA7
:100EC0006C177D07A8F380E0DF91CF911F910F9100
:100ED000089581E0F9CF8CBD9DBD0895CF93DF9338
:100EE000EC0180916C03811109C081E080936C0357
:100EF0008091B3079091B4070E946B0760E08C81EA
:100F0000DF91CF910C9411038F929F92AF92BF9279
:100F1000FF920F931F93CF93DF93EC01F62E4901BD
:100F20005A018E81882389F08F8198859C012F5FDB
:100F30003F4F38872F838230924018F40E944D072C
:100F4000F3CFCE010E943B071E82CE010E946E07A6
:100F50008CE291E00E9450078F2D80640E9446072A
:100F600008E110E0D501C401002E04C0B695A79594
:100F7000979587950A94D2F70E9446070850110961
:100F8000083F8FEF180771F785E9FF2021F028E06F
:100F900087E8F2128FEF0E94460710E00E944D078B
:100FA0008A8787FF04C01F3F11F01F5FF7CFDF91D3
:100FB000CF911F910F91FF90BF90AF909F908F9016
:100FC0000895AF92BF92CF92DF92EF92FF920F936C
:100FD0001F93CF93DF93EC016901C801820F931F28
:100FE0008130924050F58E81882379F088819981F3
:100FF000AA81BB8184179507A607B70731F48F81B3
:101000009885C816D90608F042C0488359836A8378
:101010007B838B85833039F089E0440F551F661F31
:10102000771F8A95D1F79A01AB0161E1CE010E9449
:101030008407882389F083E08D83CE010E943B07DB
:1010400080E0DF91CF911F910F91FF90EF90DF90A3
:10105000CF90BF90AF9008950E94D2035B010E9491
:101060004D078A878F3F69F40E94D2036A197B0972
:101070006D327140A0F38FE08D83CE010E943B075B
:10108000DCCF8E3F89F418861F8281E08E838F81AA
:1010900098858C159D0550F40E944D078F81988589
:1010A000019698878F83F3CF8DE0E6CF6701E00E3E
:1010B000F11E0E944D07F60181936F01EE15FF05A9
:1010C000C1F78F819885080F191F18870F838985AD
:1010D000882319F001151240A0F08E81882389F031
:1010E0008F8198859C012F5F3F4F38872F838230F7
:1010F000924018F40E944D07F3CFCE010E943B07A7
:101100001E8281E09ECFCF92DF92EF92FF920F93EB
:10111000CF93DF93EC01690182E14115510561052F
:10112000710599F08B85833039F089E0440F551FA4
:10113000661F771F8A95D1F79A01AB0168E1CE014E
:101140000E948407882319F084E08D832DC08EEFE0
:101150000E94460776018EEFD81AF70181917F0130
:101160000E944607EC14FD04C1F78FEF0E9446076A
:101170008FEF0E9446070E944D078A878F71853046
:1011800071F4011116C0CE010E943B0781E0DF918E
:10119000CF910F91FF90EF90DF90CF90089581E174
:1011A0008D83CE010E943B07CE010E943B0780E069
:1011B000EECF88E592E00E945007811102C085E1E0
:1011C000C4CF20E030E0A9016DE0CE010E94840789
:1011D000882311F084E1B9CF0E944D078111FACF25
:1011E000D2CF0F9340916F035091700360917103C0
:1011F00070917203411551056105710599F0082F31
:1012000027E734E080917706909178060E94830862
:10121000882349F010926F031092700310927103AB
:101220001092720381E00F9108950F93CF93C82F0E
:1012300080916E03811105C0C1E08C2FCF910F9179
:101240000895409100025091010260910202709154
:1012500003020C2F27E734E08091770690917806FF
:101260000E948308811102C0C0E0E7CFCC2321F3A4
:1012700081E00E94F1088823B9F310926E03DDCF5C
:101280008F929F92AF92BF92EF92FF920F931F9314
:10129000CF934B015C01C42F809100029091010219
:1012A000A0910202B091030288159905AA05BB0519
:1012B00051F181E00E94150981110BC080E0CF91AE
:1012C0001F910F91FF90EF90BF90AF909F908F90E4
:1012D000089587E7E82E84E0F82E00E012E030E081
:1012E00020E0B501A40180917706909178060E94D4
:1012F000E107882319F38092000290920102A092E4
:101300000202B092030240916E034C2B40936E0395
:1013100081E0D5CF8F929F92AF92BF92CF92DF9212
:10132000EF92FF92CF9325EB37E03093780620932E
:101330007706882309F46DC040E060E070E0CB01DF
:101340000E94400981110BC080E0CF91FF90EF9087
:10135000DF90CF90BF90AF909F908F900895809135
:1013600035068F7789F78091410690914206A091CA
:101370004306B091440684369105A105B10520F3DA
:10138000C0903D06D0903E06E0903F06F0904006AB
:10139000C114D104E104F104B9F240E0C701B6017F
:1013A0000E944009882381F28091820490918304F5
:1013B0008115924049F6A0918704AA2329F26091F1
:1013C0008504709186046115710509F4BDCF2091E3
:1013D0008404222309F4B8CFA093D3072093C50730
:1013E00090E080E030E0E1E0F0E0C82FAF01082EAF
:1013F00002C0440F551F0A94E2F72417350769F01D
:1014000041E0480F01968930910579F74093CE0766
:101410009BCFC12CD12C7601C0CF8093CE072091D9
:101420008D0430918E0450E040E02115310541F4E7
:1014300020919B0430919C0440919D0450919E0406
:101440002093C6073093C7074093C8075093C90736
:1014500046015701860E971EA11CB11C8092D4072D
:101460009092D507A092D607B092D707E091880452
:10147000F0918904F093DA07E093D907B0E00E9475
:10148000EA25DC01CB01880D991DAA1DBB1D8093A7
:10149000DB079093DC07A093DD07B093DE0725E020
:1014A000EE0FFF1F2A95E1F7E150FE4FEF2FFF27C8
:1014B000E6958E0F9F1FA11DB11D8093CF079093BE
:1014C000D007A093D107B093D20780908A04909060
:1014D0008B04B12CA12C8114910441F480909704C9
:1014E00090909804A0909904B0909A04C81AD90AD0
:1014F000EA0AFB0AC80CD91CEA1CFB1C04C0F694BF
:10150000E794D794C794CA95D2F7C092CA07D092ED
:10151000CB07E092CC07F092CD0785EFC8168FE09D
:10152000D806E104F10428F48CE08093D80781E028
:101530000CCF80E125EFC2162FEFD206E104F104B3
:10154000A0F38091A3049091A404A091A504B0916C
:10155000A6048093DB079093DC07A093DD07B0938C
:10156000DE0780E2E2CF4F925F926F927F928F927E
:101570009F92AF92BF92CF92DF92EF92FF920F9322
:101580001F93CF93DF93EC01423051056105710544
:1015900090F480E0DF91CF911F910F91FF90EF9039
:1015A000DF90CF90BF90AF909F908F907F906F9083
:1015B0005F904F90089589859A85AB85BC8501968B
:1015C000A11DB11D84179507A607B70710F3CB8897
:1015D000DC88ED88FE888F89803109F042C0BB2706
:1015E000A72F962F852F480159012A013B01C80ECC
:1015F000D91EEA1EFB1E8091000290910102A0916B
:101600000202B0910302C816D906EA06FB0699F554
:101610008F898031C1F5B301A2015527662777274D
:10162000440F551F49585B4FFA0191828082809187
:101630006E03816080936E038A89823080F08D8191
:101640009E81AF81B8858C0D9D1DAE1DBF1D809301
:101650006F0390937003A0937103B093720381E0C2
:1016600099CFDB01CA01E7E0B695A79597958795D5
:10167000EA95D1F7B8CF40E0C701B6010E94400912
:101680008111C6CF86CFB301A2014F7755276627B8
:101690007727440F551F440F551F49585B4FFA01D8
:1016A00080829182A282B382C2CF8F929F92AF92A8
:1016B000BF92CF92DF92EF92FF920F931F93CF933F
:1016C000DF93FC0181859285A385B4850196A11DD8
:1016D000B11D84179507A607B70770F480E0DF9166
:1016E000CF911F910F91FF90EF90DF90CF90BF901F
:1016F000AF909F908F90089583889488A588B6882E
:101700008789803189F5BB27A72F962F852FE9017F
:101710006A017B018F01BC01CD01680D791D8A1D15
:101720009B1D8090000290900102A0900202B09058
:10173000030286169706A806B90601F5F8018789FF
:10174000803111F5DD24EE24FF24F601EE0FFF1F9A
:10175000E958FB4F80819181B0E0A0E088839983B4
:10176000AA83BB8381E0BBCFDB01CA01C7E0B6958A
:10177000A79597958795CA95D1F7C9CF40E00E9464
:1017800040098111DBCFAACFE894C7F8DD24EE240D
:10179000FF24F601EE0FFF1FEE0FFF1FE958FB4F6E
:1017A00080819181A281B381BF70D8CF4F925F9227
:1017B0006F927F92AF92BF92CF92DF92EF92FF92A1
:1017C0000F931F93CF93DF9300D01F92CDB7DEB757
:1017D0008C0149835A836B837C835901C12CD12CA2
:1017E0007601412C82E0582E612C712C49815A815E
:1017F0006B817C819E012F5F3F4FC8010E94550B7A
:10180000882339F1F8018585A301920104C0220FD4
:10181000331F441F551F8A95D2F7DA01C901C80E3C
:10182000D91EEA1EFB1E49815A816B817C81878902
:10183000803111F188EF9FEFAFEFBFE048175907F4
:101840006A077B0798F2F501C082D182E282F382B7
:1018500081E00F900F900F900F90DF91CF911F912B
:101860000F91FF90EF90DF90CF90BF90AF907F905F
:101870006F905F904F90089588EF9FEFA0E0B0E0E9
:10188000DDCFCF93DF93FC012581222321F080E07F
:10189000DF91CF910895EC018091D807803159F5FF
:1018A00082E08583178A108E118E128E8091D9075F
:1018B0009091DA07B0E0A0E025E0880F991FAA1FF9
:1018C000BB1F2A95D1F7838B948BA58BB68B81ECAC
:1018D00097E09C8F8B8F81E08C831E821F821886FD
:1018E00019861A861B861C861D861E861F86188AE8
:1018F000198A1A8ACDCF803251F683E085834091D0
:10190000DB075091DC076091DD077091DE07478BA4
:10191000508F618F728F9F012D5E3F4F81EC97E05A
:101920000E94D60B8111D3CFB2CF8F929F92AF92EC
:10193000BF92CF92DF92EF92FF920F931F93CF93BC
:10194000DF93EC018D8181110EC080E0DF91CF919A
:101950001F910F91FF90EF90DF90CF90BF90AF90CD
:101960009F908F9008950B891C892D893E890417BB
:1019700015072607370748F34A015B01823031F427
:101980008A869B86AC86BD8681E0E0CF8114910477
:10199000A104B10449F41E821F82188619861A8692
:1019A0001B861C861D86F0CF0A851B852C853D85F0
:1019B000EB8DFC8D858590E00996B901A801415019
:1019C000510961097109082E04C0769567955795EC
:1019D00047950A94D2F775016401E1E0CE1AD10867
:1019E000E108F10804C0F694E794D794C7948A9567
:1019F000D2F7C416D506E606F70620F0012B022B17
:101A0000032B11F58F89988DA98DBA8D8E839F83B5
:101A1000A887B9878E010A5F1F4FC114D104E10462
:101A2000F10409F4ADCF4E815F8168857985980115
:101A30008B8D9C8D0E94550B91E0C91AD108E1084D
:101A4000F1088111EACF81CFC41AD50AE60AF70A54
:101A5000E1CF3F924F925F926F927F928F929F92CF
:101A6000AF92BF92CF92DF92EF92FF920F931F93AC
:101A7000CF93DF93CDB7DEB72C970FB6F894DEBFC8
:101A80000FBECDBF5C01DC015B968D909C905C9796
:101A900016964D905D906D907C901997411451046D
:101AA0006104710409F468C0BFEF4B1A5B0A6B0A4A
:101AB0007B0A312CF40181859285A385B4859C0134
:101AC000AD012F5F3F4F4F4F5F4F29873A874B87BD
:101AD0005C87730162011D821E821F821886F401D9
:101AE00081859285A385B4852D813E814F8158855E
:101AF000281739074A075B0708F056C089859A8579
:101B0000AB85BC858C159D05AE05BF0550F482E004
:101B1000C82ED12CE12CF12C92E0492E512C612CB5
:101B2000712C9E012F5F3F4FB701A601C4010E9497
:101B3000550B8823C9F189819A81AB81BC81892B9E
:101B40008A2B8B2B09F1260137019FEF491A590A7D
:101B5000690A790A2D813E814F8158852F5F3F4F59
:101B60004F4F5F4F2D833E834F8358873FEFC31AFC
:101B7000D30AE30AF30AB3CFF401408051806280B4
:101B800073803324339496CFC414D504E604F70449
:101B900009F70FEF1FEF2FEF3FE0B701A601C401D8
:101BA0000E94B30A811119C080E02C960FB6F894F8
:101BB000DEBF0FBECDBFDF91CF911F910F91FF9080
:101BC000EF90DF90CF90BF90AF909F908F907F90DD
:101BD0006F905F904F903F900895D50116964D916C
:101BE0005D916D917C9119974115510561057105C4
:101BF00039F097018601C4010E94B30A8823A1F23B
:101C0000D5011696CD92DD92ED92FC921997332074
:101C100051F0D701C6010196A11DB11DF4018083C9
:101C20009183A283B383F5018789908DA18DB28DB5
:101C3000892B8A2B8B2B39F48481C78AD08EE18E35
:101C4000F28E80688483F50184818062848381E0E0
:101C5000ACCF1F93CF93DF93FC0125812223D1F1D9
:101C6000162FEC01848187FF2AC0668577858089DD
:101C7000918941E00E944009882361F1EA8980E26C
:101C8000E89FF0011124E958FB4F309719F18D813D
:101C9000823040F48B899C89AD89BE89848F958F71
:101CA000A68FB78F8F89988D938F828F8F89988D0C
:101CB000A98DBA8DB58BA48B8C818F778C831111F4
:101CC00003C08C818F7E8C83812FDF91CF911F91F8
:101CD0000C94150980E0DF91CF911F910895FF9238
:101CE0000F931F93CF93DF93EC018D81813041F0EF
:101CF00090E080E0DF91CF911F910F91FF900895C8
:101D00008C8181FFF5CF82FD1BC000917706109179
:101D10007806C8010E946E070E944D07F82EC80180
:101D20000E943B078FEFF812E3CF8C8185FF1BC029
:101D300060E0CE010E94290E8C818F7D8C83D8CFEC
:101D40004B895C896D897E898A859B85AC85BD853B
:101D500084179507A607B707C1F2CE010E94950C1C
:101D60008111D3CFC5CF40916F0350917003609123
:101D7000710370917203452B462B472B21F080E0B5
:101D80000E94F108B5CF80618C832A853B85317034
:101D900080E092E0821B930BADCFCF93DF93EC01F9
:101DA00061E00E94290E882311F01D8281E0DF91FD
:101DB000CF9108952F923F924F925F926F927F92B0
:101DC0008F929F92AF92BF92CF92DF92EF92FF924B
:101DD0000F931F93CF93DF9300D01F921F92CDB725
:101DE000DEB77C015B01342E5D83DC0115968C919E
:101DF0001597813009F0CEC014962C9021FECAC0F0
:101E000022FCB4C0C32CDD8022947FE027222094E2
:101E1000B22DB1702B2ED7011A964D915D916D9117
:101E20007C911D97C114D10409F428C15B968D9152
:101E30009C915C97FC0174807A948A019B0169E013
:101E400036952795179507956A95D1F770228A01DF
:101E50001170711020C001151105E9F416964D910D
:101E60005D916D917C911997411551056105710541
:101E700009F099C057968D919D910D90BC91A02D20
:101E80000097A105B10509F0B0C0C7010E94290D56
:101E9000882309F47FC080E092E0801B910B46010B
:101EA0008C159D0508F44C01D7015B964D915C9112
:101EB0005C9716968D919D910D90BC91A02D0297E7
:101EC000A109B109FA01258504C0880F991FAA1F2D
:101ED000BB1F2A95D2F74685578560897189840F83
:101EE000951FA61FB71F9C01AD01270D311D411D78
:101EF000511D29013A01811432E0930609F07BC09B
:101F00008091000290910102A0910202B09103021F
:101F100084159505A605B70559F48FEF9FEFDC01F1
:101F20008093000290930102A0930202B0930302F7
:101F3000022D9501B301A201809177069091780658
:101F40000E948308882331F19EEFB91AC818D90876
:101F5000F70182859385A485B585880D991DA11DFE
:101F6000B11D82879387A487B58755CFF701438931
:101F700054896589768982859385A485B5854817B6
:101F800059076A077B0709F43DCFC7010E94950CEA
:101F9000811138CF81E090E0D70113969C938E9306
:101FA000129780E007C09E012F5F3F4F0E94550BA4
:101FB000811102C090E079C089819A81AB81BC8196
:101FC000F701238D348DF901278948EF5FEF60E039
:101FD00070E0203121F048EF5FEF6FEF7FE0841772
:101FE0009507A607B70708F050CFF70186839783B8
:101FF000A087B18750CF0115110599F5D7011A9621
:102000004D915D916D917C911D9753968D919D9110
:102010000D90BC91A02D481759076A077B0708F15E
:1020200081E00E941509882309F4B4CF4092000290
:1020300050920102609202027092030280916E033C
:10204000816080936E03C80189589B4FD5019C0124
:10205000280D391DFC012E173F0759F04D91419372
:10206000FACF41E0C301B2010E9440098111EBCFD8
:1020700091CF281B390BA20EB31E68CFF7018389BD
:102080009489A589B68984179507A607B70738F4F8
:102090008481438B548B658B768B80688483F701B6
:1020A000848183FD1AC0832D9D810F900F900F9026
:1020B0000F900F90DF91CF911F910F91FF90EF90B4
:1020C000DF90CF90BF90AF909F908F907F906F9058
:1020D0005F904F903F902F90089561E0C7010E945C
:1020E000290E882309F456CFDECFCF93DF931F92BA
:1020F000CDB7DEB7698341E050E0BE016F5F7F4F2F
:102100000E94DA0E0F90DF91CF910895FC01DB0160
:1021100012968D919C9113979383828381E392E031
:102120009183808314968C911497848315968C9157
:102130001597858316964D915D916D917C911997B8
:1021400046835783608771871A964D915D916D9193
:102150007C911D9742875387648775871E964D91A2
:102160005D916D917C91519746875787608B718BFC
:1021700052968C915297828B53964D915D916D91B1
:102180007C915697438B548B658B768B57964D91EC
:102190005D916D917C915A97478B508F618F728FB3
:1021A0005B968D919C91948F838F0895FC01818D16
:1021B000928D009719F061E00C94290E0895DC01CE
:1021C0005996ED91FC913097B9F083899489A5894E
:1021D000B6894285538564857585841B950BA60B4E
:1021E000B70B811520E89207A105B10538F08FEFF4
:1021F0009FE7A0E0B0E0089590E080E00895DC0162
:1022000059968D919C91009739F0DC01ED91FC91EC
:102210000480F581E02D199490E080E00895CF933B
:10222000DF93EC01E98DFA8D309749F481E090E07D
:102230009B838A8390E080E0DF91CF9108951382A1
:102240001282898D9A8D0E94DA0EE98DFA8D228193
:102250003381232B59F7F0CFCF93DF931F92CDB764
:10226000DEB76983DC01ED91FC910280F381E02D02
:1022700041E050E0BE016F5F7F4F19950F90DF91F5
:10228000CF9108952F923F924F925F926F927F92DB
:102290008F929F92AF92BF92CF92DF92EF92FF9276
:1022A0000F931F93CF93DF9300D0CDB7DEB7FC0120
:1022B0008581811118C08FEF9FEF0F900F900F90C5
:1022C000DF91CF911F910F91FF90EF90DF90CF9012
:1022D000BF90AF909F908F907F906F905F904F9046
:1022E0003F902F900895848180FFE5CF43895489E2
:1022F0006589768982859385A485B585312C212CC5
:10230000481759076A077B0719F022242394312CB8
:102310006F012101CE0101963C01DF011696BB83BE
:10232000AA834114510409F4C5C0F60142855385BE
:10233000648575854A01F1E09F22D6015B968D91F7
:102340009C915C978A019B01E9E03695279517954A
:102350000795EA95D1F71596EC91E230E9F5FC0185
:10236000628D738D848D958D600F711F821F931FF9
:10237000A12C22E0B22EA818B9084A145B0408F474
:102380005201F601248126FD04C0A114F2E0BF062B
:1023900071F400910002109101022091020230912B
:1023A0000302061717072807390709F05EC040E047
:1023B0000E944009882309F47ECFC40189589B4FAD
:1023C000D3019C012A0D3B1DFC012E173F0709F488
:1023D0006CC041914D93F9CFDC011496BC90BA9436
:1023E000B0228114910479F4B1100DC0452B462B15
:1023F000472B69F5F6018789908DA18DB28D868373
:102400009783A087B187D6015B96ED91FC915C978D
:1024100016966D917D918D919C91199762507109DD
:1024200081099109258504C0660F771F881F991FB0
:102430002A95D2F70685178520893189600F711F8B
:10244000821F931F6B0D711D811D911D91CFD601B0
:1024500016964D915D916D917C9119972A813B81E2
:102460000E94550B8111CFCF26CF730185019401B6
:10247000AB01BC0180917706909178060E94E1073C
:10248000882309F418CF6A0C7B1CF601828593859A
:10249000A485B5858A0D9B1DA11DB11D82879387DB
:1024A000A487B5874A185B083CCF281B390B620EFE
:1024B000731EEBCF2A94232809F0FDCE898190E08A
:1024C000FCCEFC01818D928D009711F00C9442118D
:1024D0008FEF9FEF08950F931F93CF93DF93EC013E
:1024E000898D9A8D10E000E0009799F00E944211CA
:1024F0008C010F3F100769F0898D9A8DFC01428590
:1025000053856485758541505109610971090E949F
:10251000950CC801DF91CF911F910F910895AF9253
:10252000BF92CF92DF92EF92FF920F931F93CF93C0
:10253000DF9310921B0813E0FF24F394B0901B0864
:10254000B110ADC08091190890911A080E94AF0691
:10255000E0911908F0911A081386158614861286E0
:1025600011861086178216821582148213821092A9
:102570001108C0911908D0911A088D85882301F19E
:102580001B861D861C8680911108882309F482C051
:10259000A1E1B8E028E0E0E0215009F475C08D9198
:1025A0008E27E82FEF70F0E0E850FD4F9491E82F70
:1025B000E295EF70F0E0E85FFC4FE491E927ECCFA3
:1025C000CE010E94AF068823D9F260EFCE010E94AF
:1025D0008006EE24E394C12CA12C01E0CE010E94E0
:1025E0002D06D82ECE010E942D0691E0D91218C0DA
:1025F000813099F5013408F4C3CFAB86A11001C036
:10260000FD868B81882309F4BBCFFE013396A1E1BF
:10261000B8E02B9681918D93EC17FD07D9F7B3CFD6
:10262000EC2DF0E0D8120FC08B850817A0F4DE0166
:10263000AE0FBF1F13968C918E2179F4D12C0930E7
:1026400008F40C87A02EEC0FFD1F83819E2D909522
:10265000892383830AC08013F1CFFE01EC0DF11DA5
:1026600083818E298383DD24D3946D2DCE010E9436
:1026700051060F5FEE0C19F4C394EE24E39487E047
:102680008C1508F0ABCFB6CFBB24B394809118085B
:102690008E13B12CB0921B08115009F04FCF8091CE
:1026A0001B08DF91CF911F910F91FF90EF90DF906A
:1026B000CF90BF90AF900895CF92DF92EF92FF92AC
:1026C0001F93CF93DF93EC0180E2689FF001112408
:1026D000E958FB4F9385917161F0842F827449F022
:1026E00080E0DF91CF911F91FF90EF90DF90CF902E
:1026F0000895142F6A8B8091000290910102A0919D
:102700000202B09103028E879F87A88BB98BC48881
:10271000D588F12CE12C7601DD24CC24CF8AD88E0B
:10272000E98EFA8E828D938DB0E0A0E0AC01BD0100
:102730004C295D296E297F294F8B588F698F7A8F9D
:1027400083858871B1F4848D958DA68DB78D8B8B23
:102750009C8BAD8BBE8B81E08D831F701C831E8292
:102760001F82188619861A861B861C861D8681E0A4
:10277000B8CF803109F0B4CF9E012D5E3F4F8B8DD5
:102780009C8D0E94D60B882309F4AACF84E0E4CF65
:10279000FB0101900020E9F73197AF01461B570B71
:1027A000DC01ED91FC910280F381E02D1994BC01D4
:1027B0008CE298E00C94C8130F931F93CF93DF9390
:1027C000EC010E94C8138C016BE472E0CE010E9400
:1027D000C813800F911FDF91CF911F910F91089522
:1027E0000F931F93CF93DF93EC010E94E5048C01BC
:1027F0006BE472E0CE010E94C813800F911FDF913D
:10280000CF911F910F9108950F931F93CF93DF9353
:102810008C01EB01FC01808191810097E1F06881DE
:10282000798161157105A9F0428153812C813D8127
:102830004217530770F00E94AE288C819D81F801E9
:10284000958384831D821C82DF91CF911F910F910C
:1028500008950E941A2788819981F80191838083C5
:102860008A819B81938382838C819D8195838483DC
:10287000198218821B821A82E5CFCF93DF93EC0175
:1028800088819981009711F00E941A271982188275
:102890001D821C821B821A82DF91CF910895FC0158
:1028A00080819181009711F00C941A270895CF939D
:1028B000DF93EC01CC960E944F14CE01C6960E9485
:1028C0004F14CE01C0960E944F14CE018A960E94EA
:1028D0004F14CE0184960E944F14CE014E960E9452
:1028E0004F14CE0148960E944F14CE0142960E948A
:1028F0004F14CE010C960E944F14CE0106960E94F2
:102900004F14CE01DF91CF910C944F140F931F936E
:10291000CF93DF93EC0188819981009759F02A8148
:102920003B812617370730F081E0DF91CF911F916F
:102930000F9108958B016F5F7F4F0E94A32700972F
:1029400059F0998388831B830A832C813D81232B33
:1029500059F7FC011082E8CF80E0E7CF0F931F9377
:10296000CF93DF93EC010C811D810C5F1F4FB801E9
:102970000E948614882391F0288139818C819D8161
:102980006EE472E0820F931F0E94AE281D830C83B9
:10299000CE01DF91CF911F910F910895CE010E943A
:1029A0003D14F6CFEF92FF920F931F93CF93DF93D7
:1029B000EC01FB01E080F180E114F10411F10481EC
:1029C000158101151105A9F08C819D81080F191F32
:1029D000B801CE010E948614882399F0288139819C
:1029E0008C819D81B701820F931F0E94AE281D83A9
:1029F0000C83CE01DF91CF911F910F91FF90EF904B
:102A00000895CE010E943D14F4CFEF92FF920F93F0
:102A10001F93CF93DF93EC017B018A01BA010E94DF
:102A2000861481110BC0CE010E943D14CE01DF91AE
:102A3000CF911F910F91FF90EF9008951D830C830C
:102A4000B701888199810E94AE28F0CFFB010190E7
:102A50000020E9F73197AF01461B570B0C94051581
:102A60000F931F93CF93DF93CDB7DEB762970FB667
:102A7000F894DEBF0FBECDBF8C01CB01F8011182EF
:102A8000108213821282158214824AE0BE016F5FA7
:102A90007F4F0E942F22BE016F5F7F4FC8010E94AF
:102AA000261562960FB6F894DEBF0FBECDBFDF913C
:102AB000CF911F910F910895EF92FF920F931F9363
:102AC000CF93DF93CDB7DEB7A1970FB6F894DEBFF3
:102AD0000FBECDBF7C01CB01BA01F701118210827C
:102AE00013821282158214828E010F5F1F4F22E023
:102AF00044E00E941122009789F0BC01C7010E94A6
:102B00002615A1960FB6F894DEBF0FBECDBFDF919C
:102B1000CF911F910F91FF90EF900895C7010E94F0
:102B20003D14EFCFCF93DF93EC01FB01861797079E
:102B300049F0608171816115710541F044815581D1
:102B40000E940515CE01DF91CF9108950E943D149A
:102B5000F9CFFC0111821082138212821582148235
:102B60000C949215FC01118210821382128215823C
:102B70001482FB0101900020E9F73197AF01461B59
:102B8000570B0C9405153F924F925F926F927F9274
:102B90008F929F92AF92BF92CF92DF92EF92FF926D
:102BA0000F931F93CF93DF9300D000D000D01F92DC
:102BB0001F92CDB7DEB77C01FE013196CE010C9697
:102BC0006F0130E23193E817F907E1F7DA0130E0FD
:102BD00087E09D91B92E992309F43CC09E32F1F40F
:102BE0008A30C9F480E02B960FB6F894DEBF0FBE92
:102BF000CDBFDF91CF911F910F91FF90EF90DF90AC
:102C0000CF90BF90AF909F908F907F906F905F908C
:102C10004F903F90089538E08AE0DBCFEEE6F2E097
:102C20004491442321F031969413FACFDBCF8317DC
:102C3000C8F24FED490F4E35A8F64FE9490F4A311A
:102C400018F440EEB42EB90EF601E30FF11DB08278
:102C50003F5FBFCF8981803229F2322E8B01DB01A9
:102C60005B968D919C915C97F701948F838F16965C
:102C70001D921D921D921C921997FB0112861386BC
:102C800014861586F80182859385A485B5854389C8
:102C900054896589768984179507A607B70708F0D0
:102CA0004DC025E0B695A795979587952A95D1F7BC
:102CB000F82FFF70AF2ED80115968C91823008F452
:102CC00091CFC8010E94421197FD8CCFF8018285F7
:102CD0009385A485B5854F96A11DB11D82879387E5
:102CE000A487B587F0E2AF9EB001112469587B4FED
:102CF0006115710509F476CFDB018C91882341F0D1
:102D0000853E09F062C0BB2029F0BB24B394BACF42
:102D1000B1100EC0F701A28A8091000290910102C9
:102D2000A0910202B091030286879787A08BB18B96
:102D3000DB018C918111E9CFBB24B394832D827187
:102D4000823109F04FCFBB2009F44DC0F7016685F1
:102D500077858089918941E00E944009882309F4A0
:102D600041CFD70152968C91B0E28B9FC0011124C4
:102D700089589B4F009709F435CFFC013A9626E11C
:102D8000DF011D922A95E9F72BE0F601DC010190A5
:102D90000D922A95E1F721E238E2FC01318B208B7C
:102DA00040E058E057874687338B228B318F208F46
:102DB000578B468B81E00E941509882309F412CFB6
:102DC000432DD70152966C910AC04BE050E0C601EA
:102DD0000E948428892B09F055CF432D6A2DC70105
:102DE0000E945C1300CFF8018581823009F4FACE8D
:102DF000C8010E94290D882309F4F4CED8015B96FE
:102E0000ED91FC915C9716968D909D90AD90BC9045
:102E10001997B2E08B1A9108A108B108858504C002
:102E2000880C991CAA1CBB1C8A95D2F786859785AD
:102E3000A089B189880E991EAA1EBB1E8481240117
:102E40003501480E511C611C711C84149504A604A4
:102E5000B70409F1E1E04E1A51086108710881E0F8
:102E60000E941509882309F4BDCEE7E7F4E011922A
:102E700087E796E08E179F07D1F7409200025092A5
:102E80000102609202027092030280916E038160DF
:102E900080936E03DACFD8015B96ED91FC91258586
:102EA00080E092E0A0E0B0E004C0880F991FAA1F64
:102EB000BB1F2A95D2F7F801438954896589768921
:102EC000840F951FA61FB71F838B948BA58BB68B82
:102ED000D70152961C9287E794E04FCFEF92FF9272
:102EE0000F931F93CF93DF93EC017B018A011B8229
:102EF0001A8288EE93E0A0E0B0E08C839D83AE83DD
:102F0000BF838DE392E0998388838DE190E00E94F6
:102F10007E269A8F898F009779F02DE1F701DC01E9
:102F200001900D922A95E1F74CE050E0B801CE01F6
:102F30000C960E94B528188EDF91CF911F910F91AA
:102F4000FF90EF9008952F923F924F925F926F9271
:102F50007F928F929F92AF92BF92CF92DF92EF9229
:102F6000FF920F931F93CF93DF93CDB7DEB7C65673
:102F7000D1090FB6F894DEBF0FBECDBF6C015B0167
:102F800019A218A281E392E09F8F8E8F1BA21C8250
:102F90001B829A8389831E824E018EE1880E911CCA
:102FA000C4010E94410C75018E010F5F1F4F240167
:102FB00018016FE270E0C7010E949A28009709F497
:102FC0005DC0F70120812F3271F4FFEFEF1AFF0A85
:102FD000902F812F8201492E582E942D852D280166
:102FE000092F182FE6CF8E198D3008F08CE0682E4F
:102FF000712CA301B701CE01885A9F4F0E94B528BA
:10300000E8E5F0E0EC0FFD1FE60DF71D1082C801AA
:103010000E94CD0EF8018581882301F11EAE1DAE00
:1030200081E392E09CAF8BAF21961FAE2197A796CC
:10303000EEADFFADA797AE0EBF1EF50180818111E9
:103040002AC0BE01655C7F4FC1010E94861043E526
:1030500052E0B101C6010E946E173BC021E0AE01F3
:10306000485A5F4FB201C8010E94C3158823B1F2CC
:10307000E60CF71CC2010E94CD0EAFCFC7018A1922
:103080009B09A7969FAF8EAFA797B201CE01CB96B3
:103090000E948610CCCF19A218A281E392E09F8FE4
:1030A0008E8F1BA221968FAD219781112DC0F60125
:1030B0001382128288EE93E0A0E0B0E084839583CF
:1030C000A683B7838DE392E091838083128E118E65
:1030D0001486C601CA59DF4F0FB6F894DEBF0FBE83
:1030E000CDBFDF91CF911F910F91FF90EF90DF90B7
:1030F000CF90BF90AF909F908F907F906F905F9098
:103100004F903F902F90089527E1A501BE01655C87
:103110007F4FC4010E94C315882349F2CE01CB968C
:103120000E94CD0E49A95AA96BA97CA9C4010E948D
:10313000950CB401C1010E948610A5018ACF0F939E
:103140001F93CF93DF93CDB7DEB76B970FB6F8948D
:10315000DEBF0FBECDBF8C0160914708709148085B
:10316000CE0101960E94A317CE0101960E9414027F
:10317000E0914508F0914608309709F4A9C085818F
:10318000882309F4A5C0B8016A5F7F4F8CE298E0FC
:103190000E94E5048FEF92E00E94D713B8018CE201
:1031A00098E00E94E5048FEF92E00E94D713B801E7
:1031B000645F7F4F8CE298E00E94E5048FEF92E01D
:1031C0000E94D713B8016E5E7F4F8CE298E00E9498
:1031D000E5048FEF92E00E94D713B801685E7F4F3D
:1031E0008CE298E00E94E5048FEF92E00E94D713F2
:1031F000B801625E7F4F8CE298E00E94E5048FEF99
:1032000092E00E94D713B8016C5D7F4F8CE298E08A
:103210000E94E5048FEF92E00E94D713B801665D2B
:103220007F4F8CE298E00E94E5048FEF92E00E94CD
:10323000D713B801605D7F4F8CE298E00E94E504EF
:103240008FEF92E00E94D713B8016A5C7F4F8CE247
:1032500098E00E94E5048FEF92E00E94D713B80136
:10326000645C7F4F8CE298E00E94F01380914508E7
:1032700090914608009761F00E94CD0E809145081C
:10328000909146080E941A2710924608109245080D
:1032900065E572E0CE0101960E94B21567E478E020
:1032A000CE0101960E94D214BC0186E197E00E94F3
:1032B000F013CE0101960E944F146B960FB6F8944E
:1032C000DEBF0FBECDBFDF91CF911F910F9108954B
:1032D00064E672E0DFCF1F920F920FB60F921124B7
:1032E0002F933F938F939F93AF93BF9380916F04DE
:1032F00090917004A0917104B091720430916E04A9
:1033000023E0230F2D3758F50196A11DB11D209301
:103310006E0480936F0490937004A0937104B09333
:1033200072048091730490917404A0917504B0911B
:1033300076040196A11DB11D8093730490937404CB
:10334000A0937504B0937604BF91AF919F918F9134
:103350003F912F910F900FBE0F901F90189526E868
:10336000230F0296A11DB11DD2CF1F920F920FB64F
:103370000F9211240BB60F922F933F934F935F93AD
:103380006F937F938F939F93AF93BF93EF93FF932D
:1033900089E796E00E947105FF91EF91BF91AF918F
:1033A0009F918F917F916F915F914F913F912F915D
:1033B0000F900BBE0F900FBE0F901F9018951F928D
:1033C0000F920FB60F9211240BB60F922F938F937B
:1033D0009F93EF93FF93E0918906F0918A06808195
:1033E000E0918F06F091900682FD1DC09081809142
:1033F00092068F5F8F7320919306821741F0E091C0
:103400009206F0E0E758F94F958F80939206FF916E
:10341000EF919F918F912F910F900BBE0F900FBE48
:103420000F901F9018958081F2CF1F920F920FB6C8
:103430000F9211240BB60F922F933F934F935F93EC
:103440006F937F938F939F93AF93BF93EF93FF936C
:1034500086E197E00E947105FF91EF91BF91AF91D6
:103460009F918F917F916F915F914F913F912F919C
:103470000F900BBE0F900FBE0F901F9018951F92CC
:103480000F920FB60F9211240BB60F922F938F93BA
:103490009F93EF93FF93E0912607F0912707808198
:1034A000E0912C07F0912D0782FD1DC09081809145
:1034B0002F078F5F8F7320913007821741F0E091C3
:1034C0002F07F0E0EA5EF84F958F80932F07FF916A
:1034D000EF919F918F912F910F900BBE0F900FBE88
:1034E0000F901F9018958081F2CF87E498E00E949A
:1034F0004F148DE498E00C945714CF92DF92EF9222
:10350000FF92E9E7F6E01382128288EEC82E83E08C
:10351000D82EE12CF12CC482D582E682F7828FE18D
:1035200092E09183808325ED30E03587248724ED78
:1035300030E03787268720ED30E0318B208B21ED7E
:1035400030E0338B228B22ED30E0358B248B26ED5F
:1035500030E0378B268B118E128E138E148EE6E19F
:10356000F7E013821282C482D582E682F7829183C9
:10357000808385EC90E09587848784EC90E0978742
:10358000868780EC90E0918B808B81EC90E0938B30
:10359000828B82EC90E0958B848B86EC90E0978B0D
:1035A000868B118E128E138E148EE3EBF7E080E57E
:1035B00080831182E5EBF7E015821682118613866F
:1035C00082E090E0A0E0B0E084879587A687B78787
:1035D00013A215A614A681E392E093A782A717A6CB
:1035E00060E082E00E943F03EAE7F3E0E491AEE1AD
:1035F000B8E0EC93E4E3F3E0E491F0E0EE0FFF1FBA
:10360000E85EFC4F8591949112969C938E9311974E
:103610001B961C921B971D961C921D971C961C9224
:103620001C971A961C921A9719961C92199718961D
:103630001C92189717961C92179716961C9216971D
:1036400015961C92159714961C92149713961C921B
:103650001397E1E1F8E0B187A087128689E08387BC
:103660001486AEEFB7E083E015968C93159786E14C
:1036700016968C931697EBE7F3E0E4911796EC938C
:103680001797E5E3F3E0E4911896EC93189740E878
:103690005EE360E070E01D964D935D936D937C93C7
:1036A00050976DE472E08DE498E00E94B2156DE4ED
:1036B00072E083E598E00E94B2156DE472E089E55E
:1036C00098E00E94B2156DE472E08FE598E00E94E8
:1036D000B2156DE472E085E698E00E94B2156DE4E3
:1036E00072E08BE698E00E94B2156DE472E081E72B
:1036F00098E00E94B2156DE472E087E798E00E94BE
:10370000B2156DE472E08DE798E00E94B2156DE4A9
:1037100072E083E898E00E94B2156DE472E089E8F7
:1037200098E00E94B215ECE2F8E013821282C482A3
:10373000D582E682F7828DE392E091838083128EB8
:10374000118E14866DE472E087E498E0FF90EF90AC
:10375000DF90CF900C94B215CF93DF93CDB7DEB747
:10376000C559D1090FB6F894DEBF0FBECDBF78940E
:1037700084B5826084BD84B5816084BD85B5826076
:1037800085BD85B5816085BD80916E008160809327
:103790006E00109281008091810082608093810090
:1037A00080918100816080938100809180008160A0
:1037B000809380008091B10084608093B1008091FB
:1037C000B00081608093B00080919100826080930E
:1037D0009100809191008160809391008091900090
:1037E0008160809390008091A10082608093A1000D
:1037F0008091A10081608093A1008091A0008160F0
:103800008093A000809121018260809321018091AA
:10381000210181608093210180912001816080934A
:10382000200180917A00846080937A0080917A00F0
:10383000826080937A0080917A00816080937A0020
:1038400080917A00806880937A001092C10061E0D4
:103850008DE00E943F0386E197E00E944B0289E7DA
:1038600096E00E944B0262E0809103080E943F03B1
:103870000E94D203605D7740810991096093070837
:10388000709308088093090890930A0887E380934F
:10389000100810921D080E948F1281110E94E706E5
:1038A0000E948F12882329F08CE080931C080E94CC
:1038B000E70660EA7FE080E090E00E94A00390E0ED
:1038C00080E00E94D425582EC82ED12C63E772E0E8
:1038D00086E197E00E94DC138091E407882321F0C1
:1038E0008FED97E00E94CD0E1092C0071092BE0798
:1038F0001092BB071092BA0784E08093B9070E9428
:10390000D2038B0161E08091B9070E943F0361E01F
:103910008091B9070E941103FFB6F8948091730358
:10392000811127C0E7E6F3E08491EDEAF3E094919A
:10393000E82FF0E0EE0FFF1FE258FD4FA591B49184
:10394000EC91E92321F461E085E30E94110361E039
:1039500085E30E943F038CB580618CBD8CB580648B
:103960008CBD61E084E30E943F0361E083E30E9439
:103970003F03809173038F5F80937303FFBE82E5E3
:103980008093B3071092B4078091B3079091B40766
:103990000E946B072AE0F22E8FEF0E944607FA94EE
:1039A000F110FACF85EB97E00E946E0720E030E03F
:1039B000A90160E085EB97E00E948407F82E8093D0
:1039C000BF0721E0821709F472C00E94D203601B76
:1039D000710B613D774050F381E08093BA0785EB2E
:1039E00097E00E943B0762EA72E086E197E00E945E
:1039F000DC138E010F5F1F4FB4E7EB2EB3E0FB2EFD
:103A00000E94D20360936A0470936B0480936C04E9
:103A100090936D048090660490906704A090680471
:103A2000B0906904681979098A099B09693E734055
:103A3000810591050CF405C3EFEBF2E08491E5E814
:103A4000F3E0C490EFE3F3E0D49070E060E0DD20B9
:103A500099F081110E94AA02ED2DF0E0EE0FFF1FF8
:103A6000E85EFC4FA591B491EC91CE2291E080E00C
:103A700009F490E0692F782F81E068278DE00E949B
:103A800011030E94DE03882309F439C280910408DF
:103A90008C3009F44AC208F0D9C18B3009F4F0C166
:103AA000812C912C70ECA72E7FE7B72E13C22AEA47
:103AB00031E040E050E068E085EB97E00E94840749
:103AC00082FF2AC0F092C0078091C007812C912C00
:103AD0005401823029F4812C912CA12C80E4B82E41
:103AE00020E030E0A90167E385EB97E00E948407BE
:103AF000A501940169E285EB97E00E948407809319
:103B0000BF078823D1F00E94D203601B710B613D77
:103B1000774030F388E061CF94E0F92E0E944D07A2
:103B20008093BF07FA94F110F9CF8A3A11F082E03E
:103B300054CF82E08093C007C7CF8091C007823006
:103B4000D1F420E030E0A9016AE385EB97E00E9420
:103B50008407882311F086E040CF0E944D07807CC7
:103B6000803C19F483E08093C0070E944D070E94B7
:103B70004D070E944D0785EB97E00E943B0780E5CB
:103B80008093B3071092B40781E00E948A098823CA
:103B900009F495C08FED97E00E94410C882309F449
:103BA00022CF67E872E086E197E00E94DC13B6015D
:103BB000CE0186579F4F0E9430156CE972E0CE010E
:103BC00080579F4F0E94B215BE0166577F4FCE01AE
:103BD00080579F4F0E94D2140E94AE14DC01AD901A
:103BE000BC90A4961FAE1EAEA49781E392E0A2966D
:103BF0009FAF8EAFA297A6961FAEA69727961FAE31
:103C00001EAE279725969FAF8EAF259729961FAE9C
:103C10002997412C312CFE01E05AFF4F7F010FED17
:103C200017E03C01842D932DF501E80FF91F208149
:103C30002F3209F40196D501A80FB91FFE01E358F0
:103C4000FF4F30E020E04F014D914F3249F04423C7
:103C500039F001962F5F3F4F41932C303105A1F78A
:103C6000280D391DD9011C92F501E80FF91F20819B
:103C70002F3209F40196482E392E8A0D9B1DFC0126
:103C800020801C821B827A8269821E8221E0A4012C
:103C9000B801CE0101960E94C315882309F4A6C37A
:103CA000CE0101960E94CD0E211010C0E7E00F3D1D
:103CB0001E0719F0C8010E94CD0E11E01EC080E061
:103CC0000E948A09882309F48ECE64CFD701159605
:103CD0008C918111A0C321E0A401B801C7010E9409
:103CE000C315982EB7E00F3D1B0709F488C3C80120
:103CF0000E94CD0E911089C310E0CE0180579F4FD6
:103D00000E944F14CE0186579F4F0E944F141123DB
:103D100049F0FFEFCF1ADF0A61E0650D90E080E027
:103D20000E94DC25B601CE0101960E9430156CE997
:103D300072E0CE018D5B9F4F0E94B215BE016F5F96
:103D40007F4FCE018D5B9F4F0E94D2140E94AE1414
:103D5000BC0187E498E00E949215CE018D5B9F4FD5
:103D60000E944F14CE0101960E944F1460914708A3
:103D700070914808CE0101960E94A317CE010196CA
:103D80000E941402E0914508F0914608309709F42A
:103D90005AC08581882309F456C089EB92E00E94BD
:103DA000D7138FEB92E00E94D71385EC92E00E942C
:103DB000D71380ED92E00E94D7138AED92E00E9423
:103DC000D71387EE92E00E94D71381EF92E00E9412
:103DD000D7138CEF92E00E94D71381E093E00E940A
:103DE000D7138EE093E00E94D7136AE173E08CE270
:103DF00098E00E94DC138091450890914608009756
:103E000061F00E94CD0E80914508909146080E9475
:103E10001A27109246081092450865E572E0CE0117
:103E200001960E94B21567E478E0CE0101960E94E7
:103E3000D214BC0186E197E00E94F013CE010196F6
:103E40000E944F14D6CD64E672E0E9CF85518230EE
:103E500008F026CED09000086D2D70E0762F6627F2
:103E600066277F7780910108682B90E080E00E94B0
:103E7000B5242DEC3CEC4CEC5DE30E94162571C0A2
:103E80006091000870E090E080E00E94B5244B0152
:103E90005C01D0900108D7FE0AC0AC019B0160E034
:103EA00070E080E89FEB0E940C264B015C016D2DB9
:103EB0006F7070E090E080E00E94B7242DEC3CEC45
:103EC0004CEC5DE30E941625A50194010E940D268D
:103ED0004B015C01A5019401C501B4010E94792642
:103EE00081110DC0B501A401C8010E945C15B80183
:103EF00085E698E00E940414C8010E944F140E94B5
:103F0000DE03882309F469C0809104088B3030F007
:103F10008D3080F18551823008F48AC1812C912C3A
:103F200060ECA62E6FE7B62E43C0D09000086D2D32
:103F300070E090E080E00E94B5244B015C0160914C
:103F400001086F7070E090E080E00E94B7242DECD3
:103F50003CEC4CEC5DE30E941625A50194010E9407
:103F60000D264B015C01D7FEB5CFB7FAB094B7F878
:103F7000B094B0CF6091FF0770E090E080E00E94C5
:103F8000B7242DEC3CEC4CEC5DE30E9416254B0174
:103F90005C016091FE0770E090E080E00E94B72431
:103FA0009B01AC01C501B4010E940D264B015C01CF
:103FB000A5019401C501B4010E94792681110DC0AB
:103FC000B501A401C8010E945C15B8018BE698E018
:103FD0000E940414C8010E944F1469E273E0C801F2
:103FE0000E94B21565E678E0C8010E94D214BC01B7
:103FF00086E197E00E94E504C8010E944F1460E347
:1040000073E0C8010E94B2156BE678E0C8010E9417
:10401000D214BC0186E197E00E94F013C8010E940F
:104020004F1480916A0490916B04A0916C04B0913C
:104030006D048093660490936704A0936804B09322
:10404000690480916A0490916B04A0916C04B09112
:104050006D04409162045091630460916404709116
:104060006504841B950BA60BB70B81319742A10504
:10407000B1050CF4A9C063E574E089E598E00E94FD
:10408000261564E474E08FE598E00E94261565E04B
:1040900074E08DE498E00E94261565E374E083E502
:1040A00098E00E94261567E174E083E898E00E949A
:1040B0002615809115041A8219821C821B821E8289
:1040C0001D8224968FAF249725961FAE2597BE019B
:1040D0006D5B7F4FC8010E942615B80189E898E002
:1040E0000E940414C8010E944F1467E373E08DE737
:1040F00098E00E94261567E373E087E798E00E9446
:10410000261567E373E083E898E00E94261567E3CD
:1041100073E089E898E00E9426156DE478E0C80114
:104120000E94A91563E578E0CE0107960E94A915C3
:1041300069E578E0CE010D960E94A9156FE578E05B
:10414000CE0143960E94A91565E678E0CE01499616
:104150000E94A9156BE678E0CE014F960E94A91542
:1041600061E778E0CE0185960E94A91567E778E0BF
:10417000CE018B960E94A9156DE778E0CE01C1961D
:104180000E94A91563E878E0CE01C7960E94A915A0
:1041900069E878E0CE01CD960E94A915C8010E9479
:1041A0009F18C8010E94571480916A0490916B0473
:1041B000A0916C04B0916D048093620490936304A9
:1041C000A0936404B0936504809103049091040467
:1041D000019721F4109204041092030448E0742E15
:1041E0005CE8A52EBB24B39489E796E00E945105B4
:1041F000892B09F4F8C089E796E00E942F058432E4
:1042000049F5B092020490910204992371F0209133
:10421000000430910104F901EC58FC4F80832F5FBA
:104220003F4F309301042093000490E080E04BC0A6
:104230006091FE077091FF0776276727762790E049
:1042400080E00E94B5242DEC3CEC4CEC5DE30E9438
:104250001625ACCE8D30B9F610920204E091000420
:10426000F0910104EC58FC4F1082D801E72D1D920B
:10427000EA95E9F79801A4E7B3E0FD01E457F340BC
:104280008D918C3229F5E00FF11F10823AE0C32E98
:1042900032E0D32E912C812CB801D6018D919D91C5
:1042A0006D010E94A52894012F5F3F4F0097A1F454
:1042B0008928C9F0F7012A2D11922A95E9F7109261
:1042C00001041092000490930404809303048CCFA3
:1042D000F90181939F01D1CF490127303105E1F6E2
:1042E00090E080E0E7CFF70101900020E9F7CF01EF
:1042F0008557934070911404F0911604E0911504D1
:104300002AE7822E23E0922E30E020E050E040E0C9
:10431000009739F4F0931604E09315047093140495
:10432000C9CFD4016D914D016A3249F4F09316045E
:10433000E09315047093140481E090E0BBCF6C32DD
:1043400029F44F5F5F4F30E020E0E2CF413051056C
:1043500071F4D901AB5FBB4F6C932F5F3F4F463079
:104360005105B1F42F5F3F4FF62F0197D1CF423067
:10437000510521F42F5F3F4F762FF1CF4330510588
:1043800081F4D901AB5FBB4FDF966C932F5F3F4F3A
:104390004730510561F4D901AB5FBB4F52966C9326
:1043A00016C04430510561F42F5F3F4FE62F48306F
:1043B000510581F4D901AB5FBB4F91966C9307C057
:1043C0004530510561F6D901AD5ABB4F6C932F5F53
:1043D0003F4FCBCF4930510541F6D901AB5FBB4FC1
:1043E000D0966C93F4CF0E9400060ACB87E00F3D75
:1043F000180709F481CCC8010E94CD0E7DCC88231A
:1044000009F47ACC8E010D5B1F4F902F812F87010D
:10441000E92EF82E07CC97E00F3D190709F46CCC74
:10442000EACFEF920F931F93CF93DF93E80134E02D
:1044300047FD34E1042E000C550B57FF03C0519586
:1044400041955109E32E022F242FAE010E945422E0
:10445000CE01DF91CF911F910F91EF900895BB276F
:104460004A3031F4992322F4BDE2909581959F4F13
:104470000C943B22BB27FB015527AA27880F991FC5
:10448000AA1FA41710F0A41B83955051B9F7A05D83
:10449000AA3308F0A95DA193009779F7B111B19300
:1044A0001192CB010C94A5248F929F92AF92BF9250
:1044B000CF92DF92EF92FF920F931F93CF93DF93F0
:1044C00000D000D000D0CDB7DEB76A01F22EB02EFA
:1044D000102FFBE3AF2EA01608F41BE31F5F012F84
:1044E00027E0AE014F5F5F4F0E94CD23BC01898161
:1044F000982F9970913009F44EC09BE2E1FC04C002
:104500009E2D9170E0FC49C05E2D5071E82FE8703F
:1045100083FF55C084E0911101C083E0EF2DE81BBB
:104520008F1508F0E0E0D6018E2F20E25523C9F167
:10453000992329F0D6019C93C60101966C0196013E
:104540002D5F3F4FE2FE33C08EE4D6018C9391E4A1
:1045500011969C93119712968C93D9018E2F90E20D
:1045600081112AC0E20FF32FF11D10828EEF9FEF11
:1045700029960FB6F894DEBF0FBECDBFDF91CF9165
:104580001F910F91FF90EF90DF90CF90BF90AF9071
:104590009F908F9008959DE2B7CF90E2B5CF2D9375
:1045A00081508111FCCFCE0ED11CE0E0C1CF8EE650
:1045B000D6018C9391E6CCCF9D938150D1CF482FDB
:1045C000447082FF3DC084E0911101C083E08F15EB
:1045D00010F4EF2DE81BD6018E2F20E2552309F1B0
:1045E000992329F0D6019C93C60101966C0196018E
:1045F0002D5F3F4FE2FE1BC089E4D6018C938EE411
:1046000011968C93119786E412968C93D9018E2F74
:1046100090E2882309F4A6CF9D938150FACF2D9381
:1046200081508111FCCFCE0ED11CE0E0D9CF89E6BC
:10463000D6018C938EE611968C93119786E6E4CF83
:104640009B0177FF02C030E020E0A1E0B0E09111D3
:1046500002C0B0E0A0E0F9013196AE0FBF1F8B2C75
:10466000912CBB2009F461C05401EFEFAE1ABE0AD1
:10467000AA0DBB1DFA161B0619F014F04F2D4A1B8C
:10468000511188C0E3FC59C07601A42FB0E2A111FA
:104690004FC0C40ED11C992309F45BC040E0D60181
:1046A0001196F60190836D01552309F448C0012F3E
:1046B000060F9A81582F507184FF03C0913309F47B
:1046C000015010160CF047C0093008F008E0EEE287
:1046D000FE2E5B01A01AB108850191948194910886
:1046E0002F3F320729F4D601FC92F60131966F0173
:1046F0006217730794F1021713077CF5DB01A21B05
:10470000B30BAA24A394B12CAC0EBD1EAA0DBB1DE5
:1047100011968C9121503109D60111962815390531
:10472000F4F0F60180836D01DBCFB12CA12CA0CF7A
:10473000F701B1937F01A150AACF9111B0CFD6015B
:10474000942F50E302C05D9391509111FCCFC40EA1
:10475000D11C40E0ACCF01E0BACF80E3DBCF6217E1
:10476000730731F4963388F4953311F4552369F0C7
:10477000F6018083FD01842F90E2811108C0A40F0F
:10478000B11D1C9290E080E0F3CE81E3F1CF9193D4
:104790008150F3CF911183CF8ACF283008F027E0E2
:1047A0003327DA01990F311D87FD9160009661056D
:1047B000710539F432602E5F3D9330E32A95E1F7BD
:1047C00008959F3F30F080387105610509F03C5F26
:1047D0003C5F3D93913008F08068911DDF93CF934B
:1047E0001F930F93FF92EF92192F987F9695E92FC1
:1047F00096959695E90FFF27E253FE4F99273327A9
:10480000EE24FF24A701E70105900894079428F4FB
:10481000360FE71EF81E491F511D660F771F881FB0
:10482000991F0694A1F70590079428F4E70EF81E47
:10483000491F561FC11D770F881F991F661F0694B9
:10484000A1F70590079428F4F80E491F561FC71FBB
:10485000D11D880F991F661F771F0694A1F7059039
:10486000079420F4490F561FC71FD81F990F661FC2
:10487000771F881F0694A9F784911095177041F04F
:10488000D695C79557954795F794E7941A95C1F72C
:10489000E4E7F1E068941590159135916591959153
:1048A00005907FE27395E118F10A430B560BC90B93
:1048B000D009C0F7E10CF11E431F561FC91FD01DC0
:1048C0007EF4703311F48A95E6CFE894015030F00D
:1048D000080F0AF40027021708F4202F2395022F4F
:1048E0007A3328F079E37D932A95E9F710C07D9318
:1048F0002A9589F606949795679537951795179495
:10490000E118F10A430B560BC90BD00998F0239517
:104910007E9173957A3308F070E37C932013B8F797
:104920007E9170617D9330F0839571E37D9370E3A8
:104930002A95E1F71124EF90FF900F911F91CF91ED
:10494000DF91992787FD90950895DC01FC01672F81
:1049500071917723E1F7329704C07C916D93708356
:104960006291AE17BF07C8F30895E89409C097FB9A
:104970003EF490958095709561957F4F8F4F9F4F36
:104980009923A9F0F92F96E9BB279395F69587957A
:1049900077956795B795F111F8CFFAF4BB0F11F43D
:1049A00060FF1BC06F5F7F4F8F4F9F4F16C08823E4
:1049B00011F096E911C0772321F09EE8872F762F1A
:1049C00005C0662371F096E8862F70E060E02AF05B
:1049D0009A95660F771F881FDAF7880F9695879547
:1049E00097F90895990F0008550FAA0BE0E8FEEF1C
:1049F00016161706E807F907C0F012161306E407A3
:104A0000F50798F0621B730B840B950B39F40A269B
:104A100061F0232B242B252B21F408950A2609F479
:104A2000A140A6958FEF811D811D08950E94292523
:104A30000C949A250E948C2538F00E94932520F032
:104A4000952311F00C9483250C94892511240C9442
:104A5000CE250E94AB2570F3959FC1F3950F50E0D2
:104A6000551F629FF001729FBB27F00DB11D639F20
:104A7000AA27F00DB11DAA1F649F6627B00DA11DC6
:104A8000661F829F2227B00DA11D621F739FB00D6C
:104A9000A11D621F839FA00D611D221F749F3327DC
:104AA000A00D611D231F849F600D211D822F762F75
:104AB0006A2F11249F5750409AF0F1F088234AF052
:104AC000EE0FFF1FBB1F661F771F881F91505040BE
:104AD000A9F79E3F510580F00C9483250C94CE25B8
:104AE0005F3FE4F3983ED4F3869577956795B79545
:104AF000F795E7959F5FC1F7FE2B880F911D96955F
:104B0000879597F9089597F99F6780E870E060E0CE
:104B100008959FEF80EC089500240A941616170656
:104B200018060906089500240A941216130614069E
:104B300005060895092E0394000C11F4882352F001
:104B4000BB0F40F4BF2B11F460FF04C06F5F7F4FB9
:104B50008F4F9F4F089557FD9058440F551F59F0A0
:104B60005F3F71F04795880F97FB991F61F09F3F5A
:104B700079F087950895121613061406551FF2CF83
:104B80004695F1DF08C0161617061806991FF1CFD3
:104B900086957105610508940895E894BB276627FA
:104BA0007727CB0197F90895F999FECF92BD81BD82
:104BB000F89A992780B50895262FF999FECF1FBA44
:104BC00092BD81BD20BD0FB6F894FA9AF99A0FBE36
:104BD000019608950E94F525A59F900DB49F900D14
:104BE000A49F800D911D11240895A29FB001B39F31
:104BF000C001A39F700D811D1124911DB29F700DE6
:104C0000811D1124911D0895EE0FFF1F881F8BBF7A
:104C10000790F691E02D19945058BB27AA270E94BF
:104C200024260C949A250E948C2538F00E94932506
:104C300020F039F49F3F19F426F40C9489250EF4E2
:104C4000E095E7FB0C948325E92F0E94AB2558F3F0
:104C5000BA17620773078407950720F079F4A6F561
:104C60000C94CD250EF4E0950B2EBA2FA02D0B0140
:104C7000B90190010C01CA01A0011124FF27591BA1
:104C800099F0593F50F4503E68F11A16F040A22FA7
:104C9000232F342F4427585FF3CF46953795279518
:104CA000A795F0405395C9F77EF41F16BA0B620B17
:104CB000730B840BBAF09150A1F0FF0FBB1F661F5E
:104CC000771F881FC2F70EC0BA0F621F731F841FA1
:104CD00048F4879577956795B795F7959E3F08F0C7
:104CE000B0CF9395880F08F09927EE0F9795879589
:104CF00008950E94F224880B990B08950F931F9337
:104D0000CF93DF938230910510F482E090E0E09140
:104D10009108F091920830E020E0B0E0A0E03097F8
:104D200099F42115310509F44AC0281B390B2430A8
:104D30003105D8F58A819B816115710589F1FB01E7
:104D400093838283FE0111C04081518102811381CE
:104D500048175907E0F04817590799F4109761F080
:104D600012960C93129713961C933296CF01DF91F3
:104D7000CF911F910F91089500939108109392087D
:104D8000F4CF2115310551F04217530738F0A9012E
:104D9000DB019A01BD01DF01F801C1CFEF01F9CFBD
:104DA0009093920880939108CDCFFE01E20FF31FFC
:104DB000819391932250310939832883D7CF209151
:104DC0008F0830919008232B41F4209106023091F6
:104DD00007023093900820938F08209104023091AD
:104DE00005022115310541F42DB73EB74091080267
:104DF00050910902241B350BE0918F08F091900827
:104E0000E217F307A0F42E1B3F0B2817390778F0A1
:104E1000AC014E5F5F4F2417350748F04E0F5F1F00
:104E20005093900840938F08819391939FCFF0E027
:104E3000E0E09CCFCF93DF930097E9F0FC0132973D
:104E400013821282A0919108B0919208ED0130E096
:104E500020E01097A1F420813181820F931F2091CF
:104E60008F08309190082817390709F061C0F09336
:104E70009008E0938F08DF91CF910895EA01CE1753
:104E8000DF07E8F54A815B819E0141155105B1F7C5
:104E9000E901FB83EA8349915991C40FD51FEC17AF
:104EA000FD0761F4808191810296840F951FE901CD
:104EB00099838883828193819B838A83F0E0E0E0F9
:104EC00012968D919C9113970097B9F52D913C9175
:104ED0001197CD010296820F931F20918F08309178
:104EE00090082817390739F6309751F51092920833
:104EF00010929108B0939008A0938F08BCCFD383F1
:104F0000C28340815181840F951FC817D90761F46E
:104F10004E5F5F4F88819981480F591F51834083AD
:104F20008A819B81938382832115310509F0B0CF5B
:104F3000F0939208E09391089ECFFD01DC01C0CF71
:104F400013821282D7CF4F925F926F927F928F928D
:104F50009F92AF92BF92CF92DF92EF92FF920F9308
:104F60001F93CF93DF938C01009799F4CB01DF91CE
:104F7000CF911F910F91FF90EF90DF90CF90BF9056
:104F8000AF909F908F907F906F905F904F900C9418
:104F90007E26FC01E60FF71F9C0122503109E21723
:104FA000F30708F4AEC0D901CD91DC911197C61773
:104FB000D70720F1C530D10578F0CE0104978617C8
:104FC000970750F0C61BD70B2297C193D1936D93CF
:104FD0007C93CF010E941A27C801DF91CF911F91C6
:104FE0000F91FF90EF90DF90CF90BF90AF909F9088
:104FF0008F907F906F905F904F9008955B01AC1AF7
:10500000BD0A4C018C0E9D1EA0919108B091920892
:10501000512C412CF12CE12C109731F580918F0807
:10502000909190088815990509F05CC046165706BE
:1050300008F058C08091040290910502009741F455
:105040008DB79EB74091080250910902841B950BC1
:10505000E817F90708F055C0F0939008E0938F081F
:10506000F90171836083B8CF8D919C91119712964D
:105070006C90129713967C901397A815B90559F563
:105080006C0142E0C40ED11CCA14DB0420F1AC0157
:105090004A195B09DA011296159780F062827382D1
:1050A00051834083D9016D937C93E114F10471F035
:1050B000D7011396FC93EE9312978ECF22968C0F06
:1050C0009D1FF90191838083F301EFCFF093920844
:1050D000E093910881CF4816590608F42C017D0110
:1050E000D3019ACFCB010E947E267C01009749F024
:1050F000AE01B8010E949128C8010E941A278701B9
:105100006BCF10E000E068CFFB01DC0104C08D91A3
:105110000190801921F441505040C8F7881B990B29
:105120000895FB01DC0102C001900D9241505040F6
:10513000D8F70895FC018191861721F08823D9F7CB
:10514000992708953197CF010895FB01DC018D91D6
:10515000019080190110D9F3990B0895FB01DC012E
:1051600001900D920020E1F70895FB01DC01415010
:10517000504048F001900D920020C9F701C01D92E7
:1051800041505040E0F7089511E0C0EED1E000E05A
:1051900006C0802FFE010E9404262196011DC13EFB
:0C51A000D10780E00807A9F7F894FFCFC2
:1051AC00FFFFFFFF0000930880003B03420349030D
:1051BC00500357035E0365033F5F7F0000000093BD
:1051CC0005F3042005E00551052F054305000000FB
:1051DC00007510F3046F0EE404000000002C110F96
:1051EC0011FF10D610DF1061126B120D0A002E6326
:1051FC007376002F004461746120736176656420BE
:10520C00746F20006572726F72206F70656E696EBC
:10521C00672000696E697469616C697A696E6720D0
:10522C0053446361726400696E697469616C697A74
:10523C006174696F6E20646F6E652E004441544139
:10524C005F00696E697469616C697A6174696F6E0B
:10525C00206661696C65642100446174652C00549E
:10526C00696D652C004C6F6E6769747564652C00F4
:10527C004C617469747564652C0054656D7065724D
:10528C0061747572652C0048756D69646974792C4C
:10529C00005261696E2066616C6C2C00434F322C9D
:1052AC0000416972207175616C6974792C005769C1
:1052BC006E642053706565642C0057696E642044DD
:1052CC006972656374696F6E0054656D703A200085
:1052DC0009522E483A20002D2D2D00244750524DB6
:1052EC00430024475047474100244750474C4C004B
:1052FC0024475047534100244750475356002447F6
:0C530C0050565447002447505A444100BA
:00000001FF
